:4000000000400020110000008D0E00008D0E000080B500AF00F03EFF80B582B000AF3C4B12221A6002F0D8FB3A4B181C02F060FA012002F0E1FB032002F06AFA364B374A89
:400040001A60374B8022D2051A60364B354A126802210A431A60344B344A1A60344B344A126808218A431A60FA23DB00181C02F09BFA021CFB1D1A70FB1D1B78002B02D0B4
:40008000012000F09BFF2B4B181C02F0E1FA2A4B2A4A1A602A4B2B4A1A602B4B802252001A60274B294A1A60294B802252001A60234B284A1A60284B9B2212021A60204BAF
:4000C000264A1A60264B274A1A60274BA62212061A60264B43221A60254B40221A60254B41221A60244B41221A60244B41221A60234B41221A60234B42221A60084B8022E1
:40010000D2051A60024B11221A60BD4602B080BD30001040001BB70004010B40060000800C020B4078002E407C002E402D3E00006CF02E40DC0500000C03014000973A00FA
:400140000000014043FF00800003014040FF00800403014041FF00800803014042FF008000010B409200080008010B4038010140300101402801014024010140200101400C
:400180001C0101400401014080B582B000AF72B64E4B00221A604E4B01221A70FB1D00221A7023E0FB1D1A78131C5B009B185B00484A9B183B603B681A78597809020A439B
:4001C000997809040A43DB781B061343191C3B681A795B791B0213439BB2081C191C00F0DDFEFB1D1A78FB1D01321A70FB1D1B78012BD7D9384A394B101C191C00F0EAFE62
:40020000374BA02212011A80364B01221A70364B364A1A60364B00221A60364B00221A60354B364A1A60364B802212031A60354B354A1A60354B992212041A60344B354A7C
:400240001A60354B354A1A60354B364A1A60364B364A1A60364B02221A60364B02221A60354A354B1B78DBB202210B43DBB21370324A324B1B78DBB23C218B43DBB21421B2
:400280000B43DBB213702C4A2B4B1B78DBB216210B43DBB213702A4BAC221A60294B2A4A1A602A4B20221A60294B7D221A60294BC02252031A60284B3D221A60FFF7ACFE51
:4002C00000F0C8FEBD4602B080BDC0466CF02E401C700F40544A0100604A0100844A010000600F4002600F400001024000339030000002400800044010500F400400990022
:4003000014500F4018500F400000854020500F4020012040F707000060012040E7070000A001204087070000E0012040D70700002000104000800F4000700F4001700F4035
:400340000001044008010440880DC3001801044000020440080204401802044010B5064C2378002B07D1054B002B02D0044800E000BF0123237010BDC00F002000000000E4
:40038000AC49010008B5084B002B03D00748084900E000BF07480368002B00D108BD064B002BFBD09847F9E700000000AC490100C40F0020A80B00200000000080B582B056
:4003C00000AFFB1D00221A7062B602F0B7F900F05FF900F0BDFA01F0F5F9744B181C01F09DFA00F04BF9724B1B78012B00D0C5E0704B1B78012B00D08BE06F4B1B78012B34
:4004000000D086E000F0C8FA6C4B181C01F086FA6B4B1B68181C00F0E9F86A4B181C01F07DFA694B181C0A2100F0BAFC644B1A68654B101C191C00F08DFCFB1D00221A70B1
:400440000DE0FB1D1B780922D31A5F4AD35C181C01F0D4F9FB1D1A78FB1D01321A70FB1D1B78092BEDD900F009F9584B181C01F055FA574B1B68181C00F0B8F8514B181C0C
:4004800001F04CFA534B181C0A2100F089FC504B1A68504B101C191C00F05CFCFB1D00221A700DE0FB1D1B780922D31A494AD35C181C01F0A3F9FB1D1A78FB1D01321A70BC
:4004C000FB1D1B78092BEDD900F0D8F8424B181C01F024FAFB1D00221A700DE0FB1D1B780922D31A3D4AD35C181C01F087F9FB1D1A78FB1D01321A70FB1D1B78092BEDD9D4
:4005000000F0BCF82B4B00221A702B4B00221A7023E0324B181C0A2100F042FC042000F0CBFA2D4B181C01F0F9F9FB1D00221A700DE0FB1D1B780922D31A284AD35C181C15
:4005400001F05CF9FB1D1A78FB1D01321A70FB1D1B78092BEDD900F091F8154B00221A701F4B1B78012B09D11E4B1B781A1C0123134003D0194B181C00F022F900F098F9E9
:40058000174B1B78012B01D100F064F9164B1B78002B05D0144B00221A70002001F014FB03F0BEFB02F068F81DE7C046B04901001F2100204E21002024210020E449010058
:4005C00040210020044A0100282100200C4A010038210020442100202C4A010054210020DC0F0020DD0F0020DE0F002080B582B000AF78607B681B0C9BB2181C00F026F8B6
:400600007B689BB2181C00F021F8BD4602B080BD80B582B000AF021CFB1D1A70FB1D1B781B09DBB21A1C084B9B5C181C01F0E6F8FB1D1B780F221340034AD35C181C01F0D6
:40064000DDF8BD4602B080BD404A010080B582B000AF021CBB1D1A80BB1D1B881B0A9BB2DBB2181CFFF7D4FFBB1D1B88DBB2181CFFF7CEFFBD4602B080BDC04680B500AF30
:400680000D2001F0BBF80A2001F0B8F8BD4680BD80B500AF044B181C01F000FA062001F057F9BD4680BDC046AD06000080B584B000AF786039607B68282B20D007D8052BEE
:4006C00000D164E0262B11D0012B0BD064E0422B27D002D8412B16D05EE04C2B30D0712B51D059E02E4B01221A7055E02D4B1B78042B03D12A4B01221A704DE04CE0284BD6
:4007000001221A7048E0284A3B68111C1A1C0223081C111C1A1C03F0C2FA244B01221A703AE0224B00221A70214B00221A70214B01221A7000F08EF81F4B01221A702BE0F9
:400740003B68FB60FB689B890F2B0DD1FB685B681A78174B1A70164B1B78012B01D100F05BF8144B01221A700F4B1A785B781B021A4300231204120C1B0C1B041343181C97
:400780000EF068FD08E00C4B00221A7004E03B681A780A4B1A70C046BD4604B080BDC046DE0F00206821002020210020DC0F0020DD0F0020DF0F0020AC0B0020E00F0020D1
:4007C00080B586B000AF7860114B1B78002B1BD10C23FB180E221A810C23FB187A681A600C23FB180A229A800A4B0C22B9181A785B781B021A4300231204120C1B0C1B04FE
:400800001343181C0EF0D0FCBD4606B080BDC046E00F00202021002080B500AF094B1B78002B0DD0084B1B78002B09D0064B00221A70064B1A78064B101C191C0BF038FC7A
:40084000BD4680BDDC0F0020AC0B002020210020B00B002080B584B000AF124B1B78002B1DD0104B00221A700F4B1A780C23FB181A700C23FB1800225A703B1C0F221A81EA
:400880003B1C0C22BA181A603B1C02229A803A1C064B101C00211A1C00230FF013FABD4604B080BDDF0F0020DD0F00202021002080B500AF234B1A78234B1B789A4206D073
:4008C000214B1B78032B02D1204B01221A601E4B1A781C4B1A701B4B1B78032B08D0042B26D0022B00D02AE0002001F031F826E0164B1B685A1E154B1A60144B1B68002B56
:4009000015D1062001F024F801F060F8031E012B06D1002001F034F80C4B05221A6006E0012001F02DF8094B14221A6007E006E0012001F025F8002001F00AF8C046BD46C3
:4009400080BDC046B80B002068210020BC0B002080B500AF0D4B181C01F078FC0C4B181C01F00CFD0B4B181C01F064FD00F0BCFB00F062FD00F0C6FC00F004FE00F0A8FE5B
:4009800001F0EAFC01F05CF8BD4680BDF10D00001D0E0000550E000090B583B000AF00237B6000233B60384B1B881B04374A12889B1801331A1C364B1A60364B1B881B04B1
:4009C000354A12889B1801331A1C344B1A60334B1B68002B12D02E4B1B68181C03F0C4F8041C2E4B1B68181C03F0BEF8031C201C191C02F0F7FB031C7B6001E000237B6095
:400A00007868274902F0E0FD031C3B60386803F08BF8031C1A1C234B1A60234B181C0A2100F0BEF93868214902F0B4FB031E1BD01C4B1B68181C03F097F8031C3868191CCB
:400A400002F0F4FE031C3B603868184902F0BCFD031C181C03F068F8031C9AB2144B1A80032000F029F80CE03868124902F092FB031E03D0022000F01FF802E0012000F078
:400A80001BF8BD4603B090BD502100205E21002040210020322100203421002038210020001BB74A3C2100205421002000007A44262100200024744990B585B000AF021C93
:400AC000FB1D1A700F23FB1800221A70FB1D1B78032B04D0FB1D1B78042B00D087E09A4B7A221A70984B48225A70974B20229A70FB1D1B78042B05D1944B00221A80944B2B
:400B000000221A600F23FB1803221A702AE00F23FB181C788D4B1B88181C0A2102F02CFA0B1C9BB2DAB2884B1A550F23FB181B780F22BA18127884498A5C3032D1B2824A45
:400B4000D154824B1B88181C0A2102F08FF9031C9AB27E4B1A800F23FB181A780F23FB1801321A700F23FB181B78052BCFD90F23FB181B780F22BA18591C11701A1C724BEC
:400B80002E21995429E00F23FB181C78704B1B68181C0A2102F0F0F90B1CDAB26A4B1A550F23FB181B780F22BA18127866498A5C3032D1B2644AD154654B1B68181C0A2184
:400BC00002F054F9031C1A1C614B1A600F23FB181A780F23FB1801321A705D4B1B68002B04D00F23FB181B78092BCCD9A9E0FB1D1B78022B4DD1544B7A221A70524B48223C
:400C00005A70514B4B229A700F23FB1803221A7035E00F23FB181B78062B23D00F23FB181C784B4B1B68181C0A2102F0A5F90B1CDAB2454B1A550F23FB181B780F22BA1864
:400C4000127841498A5C3032D1B23F4AD154404B1B68181C0A2102F009F9031C1A1C3C4B1A6005E00F23FB181B78374A2E21D1540F23FB181A780F23FB1801321A70344B26
:400C80001B68002B5DD00F23FB181B78092BC0D957E02D4B7A221A702B4B48225A702A4B4D229A702A4B1B68181CFA23990002F0DDF8031C1A1C264B1A600F23FB180322F4
:400CC0001A7035E00F23FB181B78062B23D00F23FB181C781E4B1B68181C0A2102F04CF90B1CDAB2184B1A550F23FB181B780F22BA18127814498A5C3032D1B2124AD1546B
:400D0000134B1B68181C0A2102F0B0F8031C1A1C0F4B1A6005E00F23FB181B780A4A2E21D1540F23FB181A780F23FB1801321A70074B1B68002B04D00F23FB181B78092B72
:400D4000C0D9BD4605B090BD54210020262100203C21002080B582B000AF7860396018E07B68181C0A2102F007F90B1CDAB23B681A703B681B783033DAB23B681A707B6894
:400D8000181C0A2102F072F8031C7B603B6801333B607B68002BE3D1BD4602B080BDC04680B584B000AF78600A1CFB1C1A700F23FB1800221A700F23FB1800221A700CE0CD
:400DC0007B6820221A707B6801337B600F23FB181A780F23FB1801321A700F23FA18FB1C12781B789A42EBD3BD4604B080BDC04680B500AF00F03AFA064B1B78002B03D182
:400E0000044B01221A7002E0034B01221A70BD4680BDC046E10F00201F21002080B500AF022000F06BFB00F035FB031C9AB2064B1A8000F095FA031C9AB2044B1A80044B2F
:400E400001221A70BD4680BD5E210020502100204E21002080B500AF022000F0F5FB00F0BFFB031C9AB2064B1A8000F05FFC031C9AB2044B1A80044B01221A70BD4680BD05
:400E800034210020322100202421002080B500AFFEE7C04680B586B000AF224B7B61224B3B61204B7B6135E03B691B68FB603B695B68BB603B699B683B6000237B600CE01E
:400EC000FB681A68BB681A60BB680433BB60FB680433FB607B6804337B607A683B689A42EED13B69DB683B6000237B6008E0BB6800221A60BB680433BB607B6804337B6060
:400F00007A683B689A42F2D13B6910333B617B69013B7B617B69002BC6D102F08BFEFFF74DFAFEE7010000003C50010080B582B000AF154B144A126801218A431A60002363
:400F40007B600FE07B68032B04D8104B7A689200D35800E00E4B0F4A796889008B507B6801337B607B682F2BECD9FFF70DF90A4B00221A60044B044A126801210A431A6008
:400F8000BD4602B080BDC04600001040000000008D0E000000000020C000002080B582B000AF786039607A683B68101C00211A1C02F07EFEBD4602B080BDC04680B582B0F2
:400FC00000AF021CFB1D1A70FB1DFA1D12781A70FEE7C04680B586B000AF7860396000233B6100237B612FE07B699B007A68D3181B68BB600F23FB18BA681A70BB68FF22DD
:401000009343BB6018E03B695B003A68D3181B781A1CBB68D318191C3B695B003A68D3185B780B703B6901333B610F23FB181A780F23FB18013A1A700F23FB181B78002BFD
:40104000E1D17B6901337B617B69082BCCD9BD4606B080BD80B500AF0C4B802212061A600B4B03221A600B4B0B4A1A600B4B812252001A600A4B03221A600A4B00221A60E5
:40108000012000F011F8BD4680BDC046000030403000304080003040044020008800304030003140000E3F4080B584B000AF021CFB1D1A700B4B1B68FB60FB1D1B78002B64
:4010C00005D0FB68802212061343FB6003E0FB685B005B08FB60034BFA681A60BD4604B080BDC04680033A4080B500AF064B1B78002B04D100F00AF8034B01221A7000F028
:4011000057F8BD4680BDC046E20F002090B583B000AF224B1B78DAB2FB1D3F218A431A701E4AFB1D1B780C210B43DBB213701C4A1B4B1B78DBB201210B43DBB21370194A1A
:40114000184B1B78DBB201210B43DBB21370164B181C00F03DF8144B181C00F057F8134B181C00F063F8042000F070F8BC1D01F0C8F9031C23700A4A094B1B78DBB2102151
:401180000B43DBB21370BB1D1B78181C01F0BDF900F02EF8BD4603B090BDC04672000F4092000F4093000F40FFFF0000FF7F000080B500AF0549054B1B78DBB28022524294
:4011C0001343DBB20B70BD4680BDC04672000F4080B582B000AF021CBB1D1A80034ABB1D1B881380BD4602B080BDC04604100F4080B500AF01E000F043F800F037F8031C00
:401200001A1C10231340F6D1BD4680BD80B582B000AF021CBB1D1A80034ABB1D1B881380BD4602B080BDC04684100F4080B582B000AF021CBB1D1A80034ABB1D1B8813800E
:40124000BD4602B080BDC04644100F4080B582B000AF021CFB1D1A70034AFB1D1B781370BD4602B080BDC04682000F4080B500AF024B1B78DBB2181CBD4680BD62000F4043
:4012800080B500AF024B1B889BB2181CBD4680BDA4100F4080B500AF094B802292041A60084B01221A60002000F082F8064B181C00F048F8002000F037F8BD4680BDC046F8
:4012C00080012040A4012040FFFF000090B583B000AFFC1D01F015F9031C2370084B084A126804210A431A60FB1D1B78181C01F00CF90420182100F03FF8BD4603B090BDB2
:401300000000204080B500AF064B1B78002B04D1FFF7C0FF034B01221A70FFF7D7FFBD4680BDC046E30F002080B582B000AF7860034B7A681204120C1A60BD4602B080BDF3
:401340008801204080B582B000AF7860034B7A681204120C1A60BD4602B080BD9401204080B500AF034B1B681B041B0C181CBD4680BDC0468C01204090B585B000AF78606E
:4013800039600F23FC1801F0BCF8031C2370074B3A68796891400A1C1A600F23FB181B78181C01F0B2F8BD4605B090BD0800204080B582B000AF7860024B7A681A60BD4603
:4013C00002B080BDB801204080B500AF094B802292041A60084B01221A60022000F082F8064B181C00F048F8002000F037F8BD4680BDC0464001204064012040FFFF0000E1
:4014000090B583B000AFFC1D01F07BF8031C2370084B084A126802210A431A60FB1D1B78181C01F072F80220182100F03FF8BD4603B090BD0000204080B500AF064B1B7866
:40144000002B04D1FFF7C0FF034B01221A70FFF7D7FFBD4680BDC046E40F002080B582B000AF7860034B7A681204120C1A60BD4602B080BD4801204080B582B000AF786042
:40148000034B7A681204120C1A60BD4602B080BD5401204080B500AF034B1B681B041B0C181CBD4680BDC0464C01204090B585B000AF786039600F23FC1801F022F8031C7B
:4014C0002370074B3A68796891400A1C1A600F23FB181B78181C01F018F8BD4605B090BD0800204080B582B000AF7860024B7A681A60BD4602B080BD7801204080B582B0D0
:4015000000AF7860024B7A681A60BD4602B080BD7001204080B500AF094B802292041A60084B01221A60022000F082F8064B181C00F048F8002000F037F8BD4680BDC04618
:401540000001204024012040FFFF000090B583B000AFFC1D00F0D5FF031C2370084B084A126801210A431A60FB1D1B78181C00F0CCFF0120182100F03FF8BD4603B090BDAB
:401580000000204080B500AF064B1B78002B04D1FFF7C0FF034B01221A70FFF7D7FFBD4680BDC046E50F002080B582B000AF7860034B7A681204120C1A60BD4602B080BD6F
:4015C0000801204080B582B000AF7860034B7A681204120C1A60BD4602B080BD1401204080B500AF034B1B681B041B0C181CBD4680BDC0460C01204090B585B000AF78606C
:4016000039600F23FC1800F07CFF031C2370074B3A68796891400A1C1A600F23FB181B78181C00F072FFBD4605B090BD0800204080B582B000AF7860024B7A681A60BD46F4
:4016400002B080BD3801204080B582B000AF7860024B7A681A60BD4602B080BD3001204080B500AF094B802292041A60084B01221A60002000F082F8064B181C00F048F8AF
:40168000002000F037F8BD4680BDC046C0012040E4012040FFFF000090B583B000AFFC1D00F02FFF031C2370084B084A126808210A431A60FB1D1B78181C00F026FF082006
:4016C000182100F03FF8BD4603B090BD0000204080B500AF064B1B78002B04D1FFF7C0FF034B01221A70FFF7D7FFBD4680BDC046E60F002080B582B000AF7860034B7A686A
:401700001204120C1A60BD4602B080BDC801204080B582B000AF7860034B7A681204120C1A60BD4602B080BDD401204080B500AF034B1B681B041B0C181CBD4680BDC04678
:40174000CC01204090B585B000AF786039600F23FC1800F0D6FE031C2370074B3A68796891400A1C1A600F23FB181B78181C00F0CCFEBD4605B090BD0800204080B582B006
:4017800000AF7860024B7A681A60BD4602B080BDF801204080B500AF00F046F8BD4680BD80B500AF064B064A1268802109060A431A6000F019F800F01BF8BD4680BDC0469C
:4017C0000000244080B500AF064B1B78002B04D1FFF7E0FF034B01221A70FFF7E1FFBD4680BDC046E80F002080B500AFBD4680BD80B500AF00F078F8BD4680BD80B582B0AB
:4018000000AF7860C046064B1B681F221340082BF9D0044B7A681A60BD4602B080BDC046080224404002244080B500AF1B4B1C4A1A601C4B00221A601B4B01221A601B4B6A
:4018400007221A601A4B07221A601A4B00221A60194B01221A60194B194A1A60194B00221A60194B04221A60184B00221A60184B00221A60174B00221A60174B00221A607C
:40188000164B00221A60164B00221A60144B1B689AB2144B1A80BD4680BDC046000024400F00000240002440480024400003244004032440100324404400244000022440A5
:4018C000070000800402244050002440880E2440C80E2440480F2440080F2440C80F2440880F2440EA0F002080B500AF074B074A126807490A40902109040A431A60054B1A
:40190000054A12881A60BD4680BDC04600010240FFFF0FFF880F2440EA0F002080B584B000AF78600023FB6009E07A68FB68D3181B78181CFFF762FFFB680133FB607A6822
:40194000FB68D3181B78002BEFD1BD4604B080BD80B582B000AF021CFB1D1A70064B064A126806491140FA1D127892040A431A60BD4602B080BDC04608020440FFFFE3FFF2
:4019800080B584B000AF021CFB1D1A700E4B1B68DAB20F23FB1840218A431A70FB1D1B789B01DBB240221340D9B20F23FB180F22BA1812780A431A70034B0F22BA18127852
:4019C0001A60BD4604B080BD0002044080B500AF044B1B68402213409B09DBB2181CBD4680BDC0460402044080B500AF074B03221A60074B802212061A60064B04221A6087
:401A0000054B03221A60BD4680BDC046F00F00200000304008003040140F304080B500AF054A054B1968054B1B680B43802109010B431360BD4680BD08003040F00F00206F
:401A400080B500AF064B1B78002B04D1FFF7CCFF034B01221A70FFF7E1FFBD4680BDC046EC0F002080B500AF064B00221A70064B00221A70054B00221A7000F009F8BD46DD
:401A800080BDC046732100206C2100207221002080B500AF00F0D6FBBD4680BDB0B594B004AF78603E23FB1800221A802823FA183E4B111C1A1C1423081C111C1A1C02F08D
:401AC000EEF83B4B1B78002B04D1FFF7CBFF384B01221A707B68002B5CD0364B7A681A603E23FB181B88002B29D11023FB181C22BA185A601023FB182022BA181A6010238D
:401B0000FB1800221A812023FB181B221A802023FB181B225A802023FB1804221A711C23FB1800221A703E23FC181023FA180E23FB18101C191C02F0C9F9031C23803E2300
:401B4000FB181B88002B29D13E23FC181A481B49AE231A012823FD180523009300230193002302932B1C02F00DF9031C23803E23FB181B88002B11D1114B01221A703E234A
:401B8000FC18104B181C102112220EF083F8031C238003E03E23FB1801221A803E23FB181B88181CBD4610B0B0BDC046E44B0100F40F002060210020FD1E0000C800002056
:401BC00068210020204C010090B585B000AF021CFB1D1A70FB1D1B78022B04D90E23FB1801221A804DE02A4B1B78042B44D1294B1B78DBB21A1C042313403DD1FB1D1B78BA
:401C0000002B0DD1244B1E221A82234B5B68902252001A80204B5B68A02252005A8010E0FB1D1B78012B0CD11B4B96221A821A4B5B68C822D2001A80174B5B688022D201EF
:401C40005A80164BFA1D12781A700E23FC18124B181C0CF049F9031C23800E23FB181B88002B08D10B4B1B78DBB204221343DAB2084B1A7005E004E00E23FB180422FF327E
:401C80001A800E23FB181B88181CBD4605B090BD6821002073210020100C00207221002080B584B000AF78600A1CFB1C1A700023BB60BB68002B20D07B689A79BB681A7048
:401CC0000F23FB1800221A7012E00F23FB181B780133BA68D3180F22BA18127879688A5C1A700F23FB181A780F23FB1801321A700F23FB181B78052BE7D9BD4604B080BD75
:401D000080B582B000AF78607B681B789AB27B6801331B789BB21B029BB213439BB2181CBD4602B080BDC04690B585B000AF78600F23FB1800221A707B689B890B229342C8
:401D400037D17B681A1D7B680F217C18101C00211A1C40230DF0B6FF031C23700F23FB181B78002B1DD17B685B68181CFFF7C8FF031C1A1C022313409BB2002B08D0104B50
:401D80001B68822251007A68081C111C984708E00B4B1B680622FF32111C7A68081C111C9847084B1B78DBB201229343DAB2054B1A700F23FB181B78181CBD4605B090BD5D
:401DC000602100207321002090B585B000AF78600F23FC187B68181CFFF7A6FF031C2370144B1B78DBB21A1C012313401FD10F23FB181B78002B16D00823FB1812229A7062
:401E00007B689A890823FB181A800823FB180F22BA181278DA707B680822BA181868111C0DF084F903E07B6818680DF013FABD4605B090BD7321002080B582B000AF7860B2
:401E4000BD4602B080BDC04680B500AF034B00225A70024B00221A70BD4680BD7021002080B582B000AF7860BD4602B080BDC04680B500AFBD4680BD80B584B000AF786068
:401E80000E23FB1800221A707B689B79002B1CD10F23FB1800221A7012E00F23FB181B787A68D35C002B04D00E23FB1801221A700BE00F23FB181A780F23FB1801321A70A3
:401EC0000F23FB181B78052BE7D90E23FB181B78181CBD4604B080BD80B582B000AF021CBB1D1A80BD4602B080BDC04680B582B000AF7860BD4602B080BDC04680B588B02A
:401F000000AF021C3960FB1D1A70BF4B1B78DBB201221343DAB2BC4B1A70FB1D1B78712B00D956E19A00B94BD3181B689F461023FB1807221A701023FB1800225A70102333
:401F4000FB18181C03F042FE1023FB1807221A701023FB1801225A701023FB18181C03F035FEAB4B1B68181CFFF786FF031E11D0A74B1B68181C01F0D7FEA54B1B68181CDB
:401F80000021FFF78DFEA24B1B68181C0121FFF787FE36E09F4B1B781A1C3F231A409E4B1B78191C3F230B409B011A439B4B1B78191C1F230B401B031A43994B1B78191C00
:401FC0007F230B405B041343BB61BB69DAB2954B1A70BB691B0ADAB2924B5A70BB691B0CDAB2904B9A708F4B181C01F09DFE8D4B181C0021FFF754FE8A4B181C0121FFF7A1
:402000004FFE03200BF020FE0C23FB183F221A700C23FB1800225A700C23FB18181C0BF031FE814B04221A70D4E03B68181CFFF717FFCFE03B681A787C4B1A70CAE03B6887
:402040007B617B691B78002B18D17B695B78002B0BD1774B0022DA80754B00229A80744B744A1A607B69724A5A60674B1B78DBB201229343DAB2644B1A70ABE0AAE0624B5E
:402080001B78DBB21A1C2023134016D16A4B1B78102B02D1684B0522DA70684B1A78664B101C191C0BF0E0FE574B1B78DBB201221343DAB2544B1A708CE08BE03B68181C05
:4020C000FFF714FF86E03B68181CFFF70FFF564B02221A707EE0544B04221A707AE0524B1B78022B34D0484B1B78DBB21A1C012313402DD0444B1B78DBB21A1C0423134023
:402100000BD0494B03221A703F4B1B78DBB204229343DAB23C4B1A701AE03B4B1B78DBB21A1C082313400BD03F4B04221A70364B1B78DBB208229343DAB2334B1A7007E0B9
:40214000394B1B78032B03D1374B04221A7041E040E03B681B88181CFFF7BEFE3AE0374A3B68111C1A1C0223081C111C1A1C01F096FD2E4B00221A70FFF77AFE2AE0FFF743
:4021800063FE27E03B685B88162B05D81E23FB183A6852881A8003E01E23FB1817221A803B681E22BA1811881A8800231204120C1B0C1B041343181C0CF0C2FF0AE03B683E
:4021C000181CFFF701FE05E03B68181CFFF734FE00E0C0460C4B1B78DBB21A1C112313400FD0094B1B78DBB201229343DAB2064B1A70134B1B68FA1D11783A68081C111C91
:402200009847BD4608B080BD73210020604D01002C0C00207CF1FF0F7DF1FF0F7BF1FF0F78F1FF0F240C0020682100206C210020F80F0020A80B0020B80C002070210020F0
:402240006021002080B500AFBD4680BD80B582B000AF786000F04AF87B68181C00F008F8032000F011F800F037F8BD4602B080BD80B582B000AF7860024B7A685A64BD4667
:4022800002B080BD0000002090B585B000AF021CFB1D1A700E23FB600B23FC1800F031F9031C23700A4B0A4A12680A491140FA1D1078FA689040021C0A431A600B23FB18CE
:4022C0001B78181C00F021F9BD4605B090BDC04600E400E0FF3FFFFF80B500AF024B02221A60BD4680BDC04600E100E080B500AF024B02221A60BD4680BDC04680E100E0D6
:4023000080B500AF074B03221A60074B802212061A60064B04221A60054B03221A60BD4680BDC046041000200000304004003040080F304080B500AF054A054B1968054B29
:402340001B680B43802109010B431360BD4680BD040030400410002080B500AF064B1B78002B04D1FFF7CCFF034B01221A70FFF7E1FFBD4680BDC0460010002080B582B001
:4023800000AF786000F04CF87B68181C00F008F8032000F013F800F039F8BD4602B080BD80B582B000AF7860034B88217A685A50BD4602B080BDC0460000002090B585B027
:4023C00000AF021CFB1D1A701623FB600B23FC1800F097F8031C23700A4B0A4A12680A491140FA1D1078FA689040021C0A431A600B23FB181B78181C00F087F8BD4605B0BB
:4024000090BDC04610E400E0FFFF3FFF80B500AF024B8022D2021A60BD4680BD00E100E080B500AF024B8022D2021A60BD4680BD80E100E080B582B000AF786000F04CF853
:402440007B68181C00F008F8032000F013F800F039F8BD4602B080BD80B582B000AF7860034B84217A685A50BD4602B080BDC0460000002090B585B000AF021CFB1D1A70B6
:402480000E23FB600B23FC1800F03BF8031C23700A4B0A4A12680A491140FA1D1078FA689040021C0A431A600B23FB181B78181C00F02BF8BD4605B090BDC04610E400E002
:4024C000FF3FFFFF80B500AF024B802292021A60BD4680BD00E100E080B500AF024B802292021A60BD4680BD80E100E0000000000230800803D00138FDD1C046C046C046B6
:402500007047EFF3108072B6704780F31088704790B58BB000AF78602723FC18FFF7F1FF031C2370184B1A680C23FB181A60174B1A680C23FB185A607B68033B144AD35CA5
:402540001A1C0C23FB189A60124B1A680C23FB18DA601C23FB18104A1A600C23FA181C23FB185A600D4B1C22BA181A600C4B0D4A1A600A4B1B682723FB181B78181CFFF71F
:40258000C4FFBD460BB090BD08010B4000010B40284F010030001040B6EA000008001040040010401700008080B584B000AF78600023FB60154B154A126801210A431A6042
:4025C000134B144A1A60144B134A1268802109020A431A607B68002B12D01023FB600CE0012000F035F800F019F8031E02D00023FB6005E07B68013B7B607B68002BEFD135
:40260000FB68181CBD4604B080BDC04660F02E4078002E400220000010002E4080B582B000AF054B1B68012213407B607B68181CBD4602B080BDC0460C002E4080B582B09B
:4026400000AF021CFB1D1A7001BEBD4602B080BD80B582B000AF021CBB1D1A80BB1D1B88044A12785343181CFFF742FFBD4602B080BDC046C80C002090B583B000AFFC1D14
:40268000FFF73FFF031C2370074B074A126804218A431A6030BFFB1D1B78181CFFF735FFBD4603B090BDC04610ED00E080B500AF0E4B0E4A126801218A431A600B4B0B4AAA
:4026C000126802218A431A60094B094A126830218A4310210A431A60054B054A126807218A4301210A431A60BD4680BD00F02E4000FF2E4080B500AF0E4B0E4A126802218B
:402700008A431A600C4B0C4A126807218A4302210A431A60084B084A126830218A4320210A431A60034B034A126801210A431A60BD4680BD00F02E4000FF2E4090B583B086
:4027400000AF00F079F8031E22D100F027F8031E1ED000F031F8031E14D1FC1DFFF7D1FE031C237000F028F90B4B0B4A1268520052081A6000F06CF9FB1D1B78181CFFF7E2
:40278000C4FE05E0044B044A1268520052081A60BD4603B090BDC04604010B4080B500AF044B1B68002B01DA012300E00023181CBD4680BD04010B4080B582B000AF054BCF
:4027C0001B689B0F9B077B607B68181CBD4602B080BDC0460C020B4080B500AFFFF766FF044B044A1268802109060A431A60BD4680BDC04600F02E4080B584B000AF786066
:402800000C4B1B6801221340FB607B68002B02D0012B03D005E0FFF749FF06E0FFF76AFF03E00020FFF70AFFC046FB68181CBD4604B080BD00F02E4080B500AF054B1A68FF
:40284000C0231B02134001D0012300E00023181CBD4680BD00010B4080B582B000AF78607B68022B02D90020FFF7E8FE054B1B687A68D2000132D34001221340181CBD46FE
:4028800002B080BD10020B4080B584B000AF786039607B68022B02D90020FFF7CFFE7B68181CFFF7D9FF031E15D10C4B1B687A68D200111C03228A40D2431340FB603B6879
:4028C000032213407A68D2009340FA681343FB60024BFA681A60BD4604B080BD0C020B4080B582B000AF7860054B1B687A68D200D34003221340181CBD4602B080BDC04624
:402900000C020B4080B582B000AF7860144B144A11687A680A431A607B680122134005D0C0460020FFF798FF031EFAD07A6880235B00134005D0C0460120FFF78DFF031ED3
:40294000FAD07A6880235B02134005D0C0460220FFF782FF031EFAD0BD4602B080BDC04610020B4080B584B000AF78600023FB607B68012B09D002D3022B0BD00EE00C4B2C
:402980001B681B041B0CFB600CE0094B1B681B0CFB6007E0074B1B68FB6003E00020FFF74DFEC046FB68181CBD4604B080BDC04600020B4004020B4080B582B000AF0020E8
:4029C000FFF74AFF031E03D01E4B00221A6024E00120FFF741FF031E03D01A4B01221A601BE00220FFF738FF031E03D0154B02221A6012E0144B01221A60124B00221A602B
:402A00000020FFF76DFF021C104B1A6000200021FFF73AFF0120FFF775FF0A4B1B68181CFFF7A0FF031C7B60C046064B1B68181CFFF798FF021E7B689A42F6D0BD4602B096
:402A400080BDC0462C100020081000200C10002080B500AF0A4B1B68002B0ED0094B094A126801218A431A60074B1B680020191CFFF70AFF024B00221A60BD4680BDC0469C
:402A80000810002010020B400C10002080B582B000AF78600A1CBB1C1A80BB1C1A887B681A60BD4602B080BD80B582B000AF78600A1CBB1C1A80BB1C1A887B681A60BD469A
:402AC00002B080BD80B584B000AF494B1B78DBB21B02484A1278D2B21343FB60464B1B78DBB21B02454A1278D2B21343BB60BB68434A934207D1FB68072B04D1414BBB6063
:402B00000423FB6009E0BA68D4231B019A4204D1FB68042B01D13B4BBB603B4BBA681A603A4BFA681A603A4B1B78DBB21B02394A1278D2B21343FB60FA6880239B019A423B
:402B400002D0FB68002B01D1334BFB60334BFA681A60334B1B78DBB21B02324A1278D2B21343FB60FB68304A934206D0FB682F4A934202D0FB68052B01D12D4BFB602D4B3F
:402B8000FA681A602C4B1B681B097B602B4B1B68AA2B29D17B68012B26D9214B1B78DBB20E2B21D1264B1B78DBB29BB21B0299B2244B1B78DBB29AB2BB1C0A431A80224B67
:402BC000BA1C12881A60214B1B78DBB29BB21B0299B21F4B1B78DBB29AB23B1C0A431A801C4B3A1C12881A60BD4604B080BDC046D9F0FF0FD8F0FF0FDFF0FF0FDEF0FF0F65
:402C0000580B0000580D00006C002E4074002E40DBF0FF0FDAF0FF0F0220000078002E40DDF0FF0FDCF0FF0F0F0F000005050000050F000080002E40EC0F00F0E00F00F0AE
:402C40006DF2FF0F6CF2FF0F84002E406FF2FF0F6EF2FF0F94002E4080B582B000AF021CBB1D1A80BB1D1B88181CFFF7F1FCBD4602B080BD80B500AF00F0DEF8BD4680BD96
:402C800080B500AF00F0E2F8BD4680BD80B500AF00F0DCF8044B181C00F09CF8022000F0A5F8BD4680BDC046612E000080B500AF024B181C00F07CF8BD4680BD612E00005B
:402CC00080B500AF0223FF33181CBD4680BDC04680B582B000AF78602B23181CBD4602B080BDC04680B582B000AF78602B23181CBD4602B080BDC04680B582B000AF786061
:402D00002B23181CBD4602B080BDC04680B582B000AF78602B23181CBD4602B080BDC04680B582B000AF78602B23181CBD4602B080BDC04680B582B000AF78602B23181CD9
:402D4000BD4602B080BDC04680B582B000AF78602B23181CBD4602B080BDC04680B582B000AF78602B23181CBD4602B080BDC04680B500AF2B23181CBD4680BD80B582B07E
:402D800000AF021CFB1D1A702B23181CBD4602B080BDC04680B582B000AF786039602B23181CBD4602B080BD80B500AFBD4680BD80B582B000AF786000F048F87B68181CD6
:402DC00000F008F8022000F011F800F035F8BD4602B080BD80B582B000AF7860024B7A681A67BD4602B080BD0000002090B585B000AF021CFB1D1A700623FB600B23FC185A
:402E0000FFF77FFB031C23700A4B0A4A1268C0218A43111CFA1D1078FA689040021C0A431A600B23FB181B78181CFFF76EFBBD4605B090BD0CE400E080B500AF024B8022AD
:402E400052011A60BD4680BD00E100E080B500AF024B802252011A60BD4680BD80E100E080B500AF11F08EFDBD4680BD002243088B4274D303098B425FD3030A8B4244D336
:402E8000030B8B4228D3030C8B420DD3FF22090212BA030C8B4202D31212090265D0030B8B4219D300E0090AC30B8B4201D3CB03C01A5241830B8B4201D38B03C01A5241E5
:402EC000430B8B4201D34B03C01A5241030B8B4201D30B03C01A5241C30A8B4201D3CB02C01A5241830A8B4201D38B02C01A5241430A8B4201D34B02C01A5241030A8B42AC
:402F000001D30B02C01A5241CDD2C3098B4201D3CB01C01A524183098B4201D38B01C01A524143098B4201D34B01C01A524103098B4201D30B01C01A5241C3088B4201D3A0
:402F4000CB00C01A524183088B4201D38B00C01A524143088B4201D34B00C01A5241411A00D20146524110467047FFE701B5002000F0FCF802BDC0460029F7D003B5FFF73A
:402F800075FF0EBC4243891A1847C04603460B437FD4002243088B4274D303098B425FD3030A8B4244D3030B8B4228D3030C8B420DD3FF22090212BA030C8B4202D3121280
:402FC000090265D0030B8B4219D300E0090AC30B8B4201D3CB03C01A5241830B8B4201D38B03C01A5241430B8B4201D34B03C01A5241030B8B4201D30B03C01A5241C30A62
:403000008B4201D3CB02C01A5241830A8B4201D38B02C01A5241430A8B4201D34B02C01A5241030A8B4201D30B02C01A5241CDD2C3098B4201D3CB01C01A524183098B421F
:4030400001D38B01C01A524143098B4201D34B01C01A524103098B4201D30B01C01A5241C3088B4201D3CB00C01A524183088B4201D38B00C01A524143088B4201D34B00B8
:40308000C01A5241411A00D201465241104670475DE0CA0F00D04942031000D34042534000229C4603098B422DD3030A8B4212D3FC22890112BA030A8B420CD3890192112D
:4030C0008B4208D3890192118B4204D389013AD0921100E08909C3098B4201D3CB01C01A524183098B4201D38B01C01A524143098B4201D34B01C01A524103098B4201D38F
:403100000B01C01A5241C3088B4201D3CB00C01A524183088B4201D38B00C01A5241D9D243088B4201D34B00C01A5241411A00D20146634652415B10104601D34042002B0D
:4031400000D54942704763465B1000D3404201B5002000F00BF802BD0029F8D003B5FFF715FF0EBC4243891A1847C0467047C0468446081C6146FFE71FB500F0DFF9002841
:4031800001D40021C8421FBD10B500F063F94042013010BD10B500F0D1F9002801DB002010BD012010BDC04610B500F0C7F9002801DD002010BD012010BDC04610B500F02D
:4031C00073F9002801DC002010BD012010BDC04610B500F069F9002801DA002010BD012010BDC046F0B556464D465F464446F0B443024500C70F83B08A465C0A2E0EB946D7
:4032000041D0FF2E26D080231B042343DC00002398469B467F3E53465B025D0A53465A00DB0F120E9A4639D0FF2A33D080231B042B43DD0000237F3A5146B21A46467940B7
:40324000081C01921E430F2E00D976E07E4AB6009659B746002C30D108239846063B9B46D9E780230021DB03FF245B02E4055B0AC90723430B43181C03B03CBC90469946C0
:40328000A246AB46F0BD002C28D104239846033B9B46C0E7002D1FD1022302E0002D11D10123B21A50464646784001921E430F2E27D86649B60089598F460C239846093BFE
:4032C0009B46A8E7281C00F097FC7622431F52429D40121A0023AFE70323ADE7201C00F08BFC431F9C4076235B421E1A002398469B4690E70025D1469B465B464846022B5C
:403300006FD10121FF2401400023AEE77E23019A5B429B1A1B2B6DDD01214B46194000240023A2E78023DB031C4249D18023DB0323435B025B0A391C96E763016D01AB42E2
:4033400037D389461A2001215B1B01241E1C49005B00002E01DBAB4201D35B1B214301380028F3D1581E83410B431D1C019C7F34002CCBDD6B0704D00F232B40042B00D00E
:4033800004352B0104D5019A314B8032141C1D40FE2C07DD4B460121FF241940002364E7251CAAE701214A46AB015B0AE4B211405BE7019A8946013A01921B200021C4E7D1
:4033C0001D4207D023435B025B0A391C4CE700256302ABD58023DB032B435B025B0A514642E7032B25D0012BC0D101210024014000233AE7291CD9402B1C019A9E329340DE
:403400005D1EAB410B435A0704D00F221A40042A00D004335A0105D54B46012101241940002322E701214A469B015B0A114000241BE7802301214A46DB032B435B020A40DE
:403440005B0A111C10E7C046584F0100984F0100FFFFFFF7430270B542004C005D0AC30F4802120E460A240EC90FFF2A05D0FF2C08D00120A2420BD070BD0120002DFBD11C
:40348000FF2CF6D10120002EF6D10120A242F3D1B542F1D18B4205D0002AEDD1281C431E9841E9E70020E7E7F0B543024D024A0044005E0A240EC30F6D0A120EC90FFF2CEF
:4034C0000DD0FF2A31D0002C0DD177427741002A23D1002D21D10020002F0BD107E0002E28D1FF2A21D0002A05D08B4207D0584201231843F0BD002DF9D08B42F7D19442F0
:40350000F5DC04DBAE42F2D80020AE42F2D25842434101205B421843ECE7002FE5D048424141012049420843E4E7002D02D1002CCBD0DAE702204042DCE7C0464302F0B5B2
:4035400042004C005E0AC30F4802120E450A240EC90FFF2A0FD0FF2C1AD0002A10D177427741002C29D0002F17D0484241410120494208430BE00220002E08D1FF2C07D0D3
:40358000002C0AD1002D08D1584201231843F0BD0220002DFBD1002AE1D08B42F4D1A242F2DC04DBAE42EFD80020AE42EFD25842434101205B421843E9E7002DD3D100209F
:4035C000002FE4D1E0E7C046F0B55F4656464D464446F0B445024600C40F83B00F1C6D0A360EA34645D0FF2E25D080231B041D4300239A46ED007F3E01937B025B0A9846B7
:403600007800FB0F000E994640D0FF2838D0802342461B041343DB00984600237F384A46019F30186240411C1F430F2F69D87D4EBF00F659B746002D45D108230193063B38
:403640009A46DAE793465346022B2FD15B46012400251C40FF236D02DB056D0AE4071D432543281C03B03CBC90469946A246AB46F0BD002D2CD104230193033B9A46BCE758
:4036800043465A4253410322D31AC8E742460123002AC4D0404600F0AFFA4246431F9A4076235B42181A90460023B8E7032B00D1ADE0012B00D08CE05B4654461C40E4B222
:4036C00000230025C7E70C230193093B9A4694E7281C00F091FA7626431F9D4000237642361A01939A4688E780250024ED03FF23B1E74546CB469A46A5E7454693469A460B
:40370000A1E743462C041B0C9C46230C444626041C1C360C2F0C7443351C66467D4373437743EB18260C9E19B54203D980235B029C46674424043304240C1B199D016C1E8C
:40374000A5419B0E360C2B43BD19AD011D432B0104D5012368081D400543081C031C7F33002B2CDD690704D00F212940042900D00435290103D52C4B1D40031C8033FE2BDB
:4037800017DD0124FF231440002564E78020C003054209D04346034206D1454605436D026D0A4C46FF2356E705436D026D0AFF2351E70124AD016D0ADBB214404BE77E23B2
:4037C0005B421B1A1B2B07DD012400231440002541E7081C5A46C1E79E30291C8540D940681E85410D436B0704D00F232B40042B00D004356B0104D50124012314400025C9
:4038000029E70124AD016D0A1440002323E78023DB031D4301245B466D0223401C1C6D0AFF2318E7D84F0100FFFFFFF7F8B54A00430244004D02C00F240E061C9B09120E92
:40384000C90FAD09FF2A00D175E001277940884250D0A01A002800DC8FE0002A1ED1002D00D075E05A0704D00F221A40042A00D0043380220120D2041A403040002A32D084
:403880000134FF2C00D184E09B015B0AE4B25B02E4055B0A2343C0071843F8BDFF2CE1D08022D20415431B287ADD01255B1B5A015DD59B019F09381C00F09EF90538874062
:4038C000844269DC001B1F243A1C431C201ADA408740131C7C1EA74100243B43C2E7131E45D100230020DB08FF2C28D05B025B0AE4B2CCE7A11A00295BDD002A2ED0FF2C89
:40390000B0D08022D20415431B2974DC2F1C2022CF40511A8D40691E8D413D435B195A0125D50134FF2C74D001217E4A194013405B080B4396E7002D00D088E785E7002BC6
:4039400027D08022D20313435B025B0AFF249EE701380028AAD0FF2CA5D183E7002D00D180E701390029D9D0FF2CCDD17AE75A0700D079E701203040B5E7002825D1621C3E
:40398000D2B2012A55DD5F1B7A012DD5EF1A0E1C91E7FF2400237AE7624B241A3B4061E7291C2022C140101A8540681E85410D437CE7002946D1621CD1B201292BDDFF2A1D
:4039C00026D0EB185B08141C4CE7002C15D0FF2A1AD08024E404404223431B284DDD0123EB1A141C0E1C62E7002F00D063E700230020002477E7012590E7002B39D0C04355
:403A00000028EDD0FF2AE8D12B1CFF240E1C29E7FF24002367E7002C5AD1002B7FD0002D00D11FE75B195A01A1D53E4A0134134018E7002C15D1002B2FD1002D5ED02B1C7F
:403A40000E1C0FE7002C21D1002B54D0C943002904D0FF2A4CD01B2958DD01235B19141C5DE7002B23D1002D4BD02B1C0E1CFF24F8E62B1C141C0E1CF4E61E1C2024C6400E
:403A8000201A8340581E83413343A9E7FF2A2FD08024E40449422343DDE7002D00D1E1E65A1B500100D41AE7EB1A0E1CDAE6FF24002D00D1D6E68022DB08D203134204D0B1
:403AC000ED08154201D12B1C0E1CDB00FF24C9E6002B0DD0FF24002D00D1C3E68022DB08D2031342F1D0ED081542EED12B1CECE72B1CFF24B6E62B1C141CB3E6231C0020AE
:403B0000F1E6802300209B04FF24ECE61F1C2024CF40611A8B40591E8B413B439EE72B1CA0E6C046FFFFFFFB4202510A4200C30F120E00207E2A0DDD9D2A0CDC802000049A
:403B40000143952A0ADC9620821AD1400A1C58424240D0187047034A9818FBE7963A91400A1CF4E7FFFFFF7F10B5041E35D000F043F89E21091A962909DC082830DD021C23
:403B8000231C083A93405B025B0AC8B220E099290CDD0522231C121AD3401A1C031C1B339C40231C5C1EA34113431C1C052801DD431F9C400F4B2340620704D00F221440B3
:403BC000042C00D004335A010ED49B015B0AC8B25B025B0AC005184310BD00200023F7E763025B0AC8B2F3E79F21024A091A1340EBE7C046FFFFFFFB1C2101231B0498423C
:403C000001D3000C10391B0A984201D3000A08391B09984201D30009043902A2105C40187047C046040302020101010100000000000000000E4B70B500251E1C0D4CE41ABD
:403C4000A410A54204D0AB00F35898470135F8E711F0E2F9084B00251E1C084CE41AA410A54204D0AB00F35898470135F8E770BD2450010024500100245001002C500100A9
:403C800030B50024944208D0035D651C0C5DA34201D0181B02E02C1CF4E7002030BD002310B5934203D0CC5CC4540133F9E710BD031C8218934202D019700133FAE77047A2
:403CC000134A1088810703D08107890F401A001D11791030484381B25088820703D08207920F801A001D800040180A494030098980B2CA0701D0503080B2890706D50449D5
:403D00005422091F09785143081880B270470000D60C00203010002010B501F0ABFE10BD10B500F04FFA10BD10B50749044609780220002907D1204601F0ECFE002802D12F
:403D400020460AF077F810BD400E002070B504460120002C12D02368002B0FD0616800290CD0074D06222889208118462968FFF796FF6968606809780170002070BD000018
:403D800030100020FFB585B0002768460E9D07734C481C460078002802D0082009B0F0BD10990F9801900095029105A807C800F0FBF80028F2D16946264603AB8446087369
:403DC000002C19D0002115E08A00B75A082F09D990198078002805D0083FB7521878401C187005E0002915D00027B75290198770491CC9B2A942E7D360460028CED10F9826
:403E000000280AD0109901F0E9F90006000E04D00120C3E701208446EEE701F02BFE2948002101610C300599016021888180022D03D3A1798171A17AC17100211EE0481CBD
:403E400019E082008B00A75AE65ABE46BE4211D26F463E80B4461E190296B678BE7001967646E6521719029EBB78B3706646A652019EBE70401CA842E3D3491CA942DED35D
:403E8000114800906846037B22460799069800F013F9002882D168460A4C007B60700A4801F018FE0028B4D1204607490C3006F021FF0028ADD106F03BFF0028A9D10121D9
:403EC00021706BE7D00C002030100020F8B5054633480E460078002802D002242046F8BD002E5BD000242F49002D16D02A89D0070DD02868002808D003881B3BE12B04D247
:403F00004088FB2801D81B2801D2012409E0900707D56868002804D1F7E70020088108604860002CDAD11F482F8907811C481B21801D018041800421017119490020891C07
:403F40000870F80705D016480622801D2968FFF7A6FE1449B80703D56A681148127882700F480D46801D0860001F486001F0F8FD0B48801D01F0E6FD28890CF051FF28893E
:403F80000DF0B8F803461033FFF79AFE1F21C018890140180249308088809FE701249DE7D00C002030100020FFB58446384F1C460020BB883F78054602460646002F11D141
:403FC00000290ED0029999420BD36146002908D0002C06D00A99002906D02E4B0B99994202D2012004B0F0BD002144E0AB001F19BF78002F3BD0E35A002B38D07B43591894
:4040000089B22B0000F04AF8050410161C253100A7782388BC46FF27233BEB37BB4222D26346032B1FD322E0A388002B1FD0302B19D31CE02389002B19D0282B13D316E0A2
:40404000A289002A13D01346134F233BBB420AD20DE0268A002A0AD033460F4F233BBB4201D2964203D901200EE0002001E000280AD16D1CEDB2099B9D42B7D31C2463438E
:404080005B1802998B42ACD89642AAD8AAE70000D00C002079020000BAFF000030B47446641E2578641CAB4200D21D46635D5B00E31830BC18470000FFB583B0002469460C
:4040C0000C801F4606468C80002806D00598002803D004983043800701D0012467E0002FFBD03449049809888842F6D3FEF7DEFDFEF7C6FD00F010FC002856D100F06CFDAB
:40410000002852D12C49084601F09CF805042D0C4BD12A480499066081800021C18007810C98007AC00704D0684601F0BCFC040007D10C98007A800703D501A801F0BCFC73
:404140000446BF1DFEB2002C21D13146059800F05DF804001BD10CF0DBFF0406240E16D16A461088928808368518144AF1B29088D288AEB29319984207D3401B801A80B272
:4041800001F050FB050007D000E0FF25012400F05BFA002D04D008E0F8B200F01BF9F6E700F07EFA06490120087000F0C7FB204607B0F0BDD40C0020F94200003C10002092
:4041C000E40C002010B503480078012801D101F0CBF910BDE40C002070B5084B0446DA889E8800205518B54206D81D68AA182260DA885118D98070BD032070BD3C10002018
:4042000001480089704700003C100020F0B587B007460D4600208900009006916846FFF7DBFF844600285DD1304800990160002117E02E4B88001A680629115406D22C4CAE
:404240000419667882185670628805E0C419203CA67A8218567022891B68C018491C4280C9B2A942E5D300242DE0601CC2B2059025E01E4FA300396896005818408871184D
:40428000039604904E88B04217D938466F46FE80B6464F786E4677710297049F4F800168039F5E18767879184E700168764659184E800068029F18184770521CD2B2AA420E
:4042C000D7D30598C4B2AC42CFD36046002809D168460699FFF780FF8446002802D1054900980860604607B0F0BD0000E80C002050500100EC0C00207047000010B5002879
:4043000009D005494A68002A05D0011F08788000105801F035FA10BDE80C002010B50446FFF76EFFC0B2801DA0420CD307484068002808D0A100405801F094F9002801D033
:404340000470001D10BD002010BD0000E80C0020F8B516460D460446FFF752FFC0B2801DA04203D20020C0430090F8BDB2B2E9B2684601F09DF90099481C03D0024AA000D3
:40438000526811500098F8BDE80C0020F8B50746FFF736FF801DC6B20A49002005460C680DE06178002907D06188B94202D32078FFF7B4FF002804D1241D6D1CEDB2B542F8
:4043C000EFD3F8BDE80C002010B5002801D0FFF795FF10BD70B506460948002504680BE06178002905D062882078121D0023FFF7AFFF241D6D1CEDB2B542F1D370BD00003F
:40440000E80C0020FFB581B00A9C16002BD000F0F1F80546042826D0214F002C0BD02046FFF7B4FF2901C919486000281BD022460499FFF734FC1A4928010E5046187481D1
:40444000019805707D20029CC000444300F0C0F8009004280AD000F055FAA0420ED800F051FA201A06E0FF2005B0F0BD204600F0ADFA0020B08135720020F5E700F042FA6E
:40448000074600F0B9FA381B87B23846012100F0EFF800980101024808188781E6E7000048100020F8B5060117483418217A042903D0A089002802D018E00020F8BD00F0DE
:4044C00021FA054600F098FA00F0A2F804280DD001010D480F18B88941198DB2002100F0C7F80020B881284600F070FA6068064D002801D0FFF768FF042020720020A851B8
:404500006081A081D9E7000048100020FEB500266A46304601232549050169180D7A042D02D0898900291BD000211154401CC0B20428F0D300246846005D002830D01B487C
:404540002101081841894768056802910021016041600422418102728181002E02D015E01354E3E700F054F804280ED001010F480818019086890021304600F079F80198E9
:4045800000218181304600F021FA0126002D07D038460299A847002F02D03846FFF714FF641CE4B2042CC6D3FEBD0000481000200EB5002005216A46009011815081034893
:4045C000694600680DF019FC0EBD0000F00C0020074A0020010189180B7A042B02D08989002903D0401CC0B20428F3D370470000481000200549002002015218127A042A7F
:4046000003D0401CC0B20428F6D370474810002030B50A4B04200A4C00210A011219157A042D06D09289002A03D09A4201D808461346491CC9B20429EFD330BDFFFF0000E6
:40464000481000207047000030B50020074C05460423020111190B72A5504D60401C4D81C0B28D810428F4D330BD00004810002030B5094C00231A011219157A042D04D0BC
:404680009589002906D02D1895815B1CDBB2042BF1D330BD2D1AF7E748100020002070471CB5002469460C70142001902346054A05480DF0A7FB04480068401C00D1FF249D
:4046C00020461CBD1D470000F00C00203EB5124A0146FF2000230124126800290DD0012914D0042908D104206946009308814B8110460DF082FB80B23EBD684600930481EC
:404700004381694610460DF073FBF4E768460093048143816946EBE7F00C002070B545890468416800890300FFF7B8FC08280509091E22282628002005F0EEF91EE00229E3
:4047400008D0C8B22A4621460BF01AFD2046FFF73BFE13E002202A4621460BF011FD2946204600F00DF809E000200DF035F805E02046FFF7CBFE01E0FEF716FB002070BD39
:40478000014B0022DB681847F40C002070B5448905680089022803D0032809D0FF2070BD2246094C0023A46829460120A04708E0FFF7B2FA241DA2B200232946022006F068
:4047C0004AF9002070BD0000F40C002070470000024800214160018041807047F40C002070B50C46002186B016460391012802D0022859D116E003A9012006F08CF90128B9
:404800001BD1039D324621462846FFF748FA0095287801900220694608814E816846FFF7B5FF41E0214D002B686809D0049004A9022006F070F901281DD0022006B070BDE0
:40484000002812D0298840182146FFF728FA28880024801980B228806988091D884206D12C801348FFF792FF03E00320E6E788421AD96C6018E004986860E278A3781102D9
:4048800019430B4A698000231060E3565360032313815181A1788170E178C1706178417021780170042028800020C7E7F40C0020881000203EB515460C46022803D00428F0
:4048C0000CD000203EBD0091019002206946088107484A8100680DF090FA07E00BF050FC044B0022DB6829462046984701203EBDF00C0020F40C0020014AD160906070472B
:40490000F40C0020034801688068081A0A214843000970479410002010B5FEF7B7F9482204490548FFF7BBF903490120C870002010BD00006C5001009814002010B5FEF772
:4049400099F910BD70B5134C2368002B08D0207B1149C20705D04008400020738868A08070BD88680B4AA18880B29268814203D90A4D691A091802E0814202D2411A51186A
:40498000A160A080A0689842EAD30DF053FA00F013F870BD94100020C0102E40FFFF000010B508461946FFF7A7FF10BD704710B5FFF780FF10BD00000348002101604160BE
:4049C0008160C1607047000094100020024610B5FF20002A0CD0FFF7EFFF064C0321207B0843207310010A21FEF7C6FA2060002010BD00009410002000B504480A218068FF
:404A000048430209FFF7D8FF104600BD941000200248007B8007C00F704700009410002010B544490868002802DA434B01221A70022290430860414800693E49C00B403191
:404A4000096A08425ED0012000F086FA3B483C497C30FEF729F837480E216C30FEF724F8364820218430FEF71FF8344814219C30FEF71AF83148FF21C131A430FEF714F832
:404A80002E48FF212F31B030FEF70EF82B482D49BC30FEF709F829482B49AC30FEF704F829492648491CB430FDF7FEFF23482749B830FDF7F9FF21482549CC30FDF7F4FF25
:404AC0001E4824490830FDF7EFFF1C482249A830FDF7EAFF194821498830FDF7E5FF17481F498C30FDF7E0FF14481921C9029030FDF7DAFFFDF7E6FFFEF7E2F8C0B2022862
:404B000002D00FE0FF2010BD16491748FDF7CCFF15481649001DFDF7C7FF134800210830FDF7C2FF54200449C043891C0870002010BD000000F02E40040D002000002E4084
:404B400055650000320300002F3F00003102000010520000EC160000FA12000031D000003AE300009956000080012E40F80F000070B50646581C80B245086D00002408E055
:404B8000304600F0C1F81055000A1119A41C4870A4B2AC42F4D3D80705D0D0182038D15CC47FD454C17770BD30B50A4C002100195B1E07E0541864782502545C2C430480E2
:404BC000891C89B29942F5DB994201D1515C018030BD000000102E4010B5FF2000F0BCF90F49FF2048700E481021801D41800121417001700A490020C91C4870FFF710FFEE
:404C000004000AD100F008F907210648FDF73EFF044807211830FDF739FF204610BD0000040D0020CC112E4070B5002405465B1E0AE0284600F068F8010A161971702D1D4C
:404C40001055A41CADB2A4B29C42F2DB9C4203D1284600F059F8105570BD000070B500210A4D5B1E0AE0541864782602545C344346193480001D891C80B289B29942F2DB3B
:404C8000994202D1515C4019018070BD00102E40F0B50599091FCFB200217E1E0BE0541864782502545C2C43164D45192C80001D891C80B289B2B142F1DBFC0712D01C781E
:404CC000515C24020F4A0C4381180C809C785D78001D210280B2294384182180001D80B2D9780CE059781A7809021143054A84182180001DD9789B78090280B21943801884
:404D00000180F0BD00102E40014940180088704700102E4010B50B490020487000F07CF8002000F03FF9002000F02CF907210648FDF7ACFE044807211830FDF7A7FE00200D
:404D400010BD0000070D0020CC112E4010B50B46062812D006DC01280CD0032801D1FFF7D9FF10BD0A28FCD00B28FAD105480078107010BDFFF730FF10BD1146184600F09D
:404D80002DF910BD0A0D0020F8B5204DAC6A0127A0071F4E002816DA307806280ED1286A384328621B480069F903084381B219481030FDF779FE042000F0CEF8134802214F
:404DC0002830FDF763FEE00711D0062000F0C4F80F49FF20C91E48707078002802D1686B38436863094801212830FDF74FFEE0050BD53078042802D1052000F0ADF80348DD
:404E0000FF2101312830FDF741FEF8BD40F02E40070D002000002E4010B503212348FDF743FE0120FDF718FF20483038406A204C80076178800F890001431C480C38FDF7AD
:404E400033FE6078002808D0401E022181401820FEF782F9C000083800E0B82081B21548FDF722FE1348032109021438FDF71CFE10481149B830FDF717FE612189010F48F9
:404E8000FDF712FE0D480321001FFDF70DFE0C490C48FDF709FE0B480B496038FDF704FE084801218838FDF7FFFD10BD70F02E400A0D0020D8102E4090890000041E2E408B
:404EC000FF0F000058122E40209000000849087806280BD148780749002803D1486B400840004863C86A01221043C86270470000070D002040F02E4001480078704700007C
:404F0000070D002000B50300FFF7C8F8080D050D0B070507090D012000BD032000BD042000BD022000BDFF2000BD0000074A9168D26889B2064B92B2994204D105498A42FC
:404F400001D1012100E000210170704780002E4033D000003FE3000010B50446FDF790FE072C01D9FF2C01D102480470FDF782FE10BD0000070D002001494870704700007A
:404F8000040D002010B5064A012805D01921C9021046FDF789FD10BD1D21C902F8E7000090002E4010B50A4A141D012808D009491046FDF779FD08492046FDF775FD10BDDE
:404FC00004491046891CFDF76FFD0349491DF3E788002E4031D000003AE3000070B50C460546FDF76DFEC0B202280E49287804D0FF2810D04C280CD810E0FF2809D10A4A3D
:40500000D0680004800F032801D0087807E09069000A553803E00878207070BD4F382070087070BD060D002000002E40F0B50122002830D000292ED00424420600D00524B5
:40504000792342065B06D21800D0641C034600221EE00C2516466E43104D00277519AF720E4F002ABB51696007D0661EB24209D10B4E86197606760E05E05E06760E8027E6
:40508000BE1B00E080269B198919521C2E81D2B2A242DED300221046F0BD00002013002079020000074900200C2242435218927A012A05D0401CC0B20628F5D300207047DE
:4050C0000120704720130020F8B50F000446164609D0184D18496868A04202D94018A04201D38E4201D90120F8BD39462046FEF7C7FD00281BD0324639462046FEF7CFFD9A
:40510000F0B200210C224A43521913895668F718A74208D90127A41B1B1B9772834206DAC01A1469C0B2491CC9B20629EAD30020F8BD0000201300207902000010B500F09B
:405140005DF80748054AC16806480C46FEF7A7FD04492046FFF76AFF10BD000079020000100D0020A4100020002070470020054A002902D0012902D002E0506000E09060D0
:4051800000207047100D002070B5084C154608460549A26889182A46FEF781FDA0684019A06028B270BD0000A4100020100D00203EB50A226946FFF7E7FF044606480A22F6
:4051C00000686946FEF75CFD002802D00020C0433EBD20463EBD0000100D0020002802D0044A914201D2FF20704703490A61C8600020704779020000100D002002480021F7
:405200004160816070470000100D002070B5074C15460548626880182A46FFF755FF60684019606028B270BDA4100020100D002010B503490A220968FFF7E8FF10BD00006B
:40524000100D002010B50F4A002313600E4A13600E4B18600E4801600E49012008600E490860000290600E490C4808600D4914300860FF381538506000F0BCF800F0CAF9B9
:40528000002010BD3C0D0020240D0020500D0020540D0020400D0020300D002068140020340D0020480D0020014610B50020002910D0094B1A689C685118A14209D2586817
:4052C000196080188A0704D08A07920F891A091D196010BD002010BD240D0020F8B50024164E671E321F3D463168136806E01422624310328A58521C1BD0641C9C42F6D3B2
:405300006A1C14D02C461422544322460C3288500C214843FFF7C8FF3168002808510AD031680020103408517068401C70602846F8BD2546E4E73846F8BD0000340D002096
:40534000F3B50026F64381B000281BDB1E490968884217D80299002914D01B4F142204463F1D54432546396810354859401C09D0FDF786FC38682F1F4159C359994203DBC7
:40538000FDF778FC3046FEBD214608310091465801590C20704308180C220299FEF77FFC0948761C001D0068C159B14200D100260549009A091D865008684159491C4151A2
:4053C000FDF758FC0020FEBD300D0020002803DB07490968884202D90020C043704704491422091D096850431030085870470000300D0020F0B500200D4A451E0346171F88
:4054000050600FE014260146714314680E1DA3510C461668083433511668083435511468401C635039688842ECD30020F0BD0000340D0020F3B50026F64381B0002841DBCE
:405440002349096888423DD8029900293AD0204F142204463F1D54432546396810354859401C2FD0FDF70CFC3868415900292BD0211D009146580C21005971430F46C11943
:405480000C220298FEF70BFC11480021001D0068761C00590C34C0190160416081600C48001D00680159B14200D100260849009A091D865008684159491E4151FDF7DAFB72
:4054C0000020FEBD3046FEBDFDF7D4FBFAE70000300D0020FEB504460D4600201E49089E0860471E009001900290002C11D0486885420ED2002A0CD0002E0AD0642E08D8BE
:4055000008460C3001681C2068430C18207A002801D03846FEBD0120226020721846FFF7DDFE6060401C13D06681A6810A4827610C3067610179A94200D2057100216846D6
:4055400001810A462846029B00F040F82846FEBD00202072DDE700003C0D002038B50124009400F039F838BDFEB50027164EFF433D4600240EE01C20316860430818017A3A
:40558000002906D04068FFF721FF002801D0254603E0641C3079A042EDDA681C12D01C2130684D434419FDF76BFB69466068FFF741FF0546FDF75EFB002DD9D12168684640
:4055C0008847D5E7FEBD0000480D002038B50024009400F001F838BD1FB500220C49541E0A60002811DB496888420ED808491C220C31096850430818406801A9FFF7A0FEFB
:40560000401C02D0002004B010BD2046FBE700003C0D0020F0B50021114A4D1E174611710C3F0B46BD6016E008461C2460431668041D355114680646235014680836A3558D
:405640001468361DA353044616680A34335318301468491C255078688142E5D30020F0BD480D002038B500210091002811DB0F49097888420DDA0D4D04010C3529680859CF
:40568000002807D0201D0818694600F06FF9002801D0002038BDFDF7F3FA28680F34015D491E0155FDF7E6FA009838BD580D0020F7B582B0002502986E1E06602E48D21CD1
:4056C000024017462D4A2C4610460C380178106805E02301C358002B0FD0641CE4B28C42F7D3711C28D03401211D40180191039900F02AF900281FD101E02646F1E71F4886
:40570000016820460C300F521C480399026820460E30115419480399026820460F3011540398784300F0A0F8144900280968085102D00024009011E001251AE00F48016895
:4057400001980818009900F02CF9002801D0012502E00098C0190090641CE4B203988442ECD3002D05D10298066004480179491C0171284605B0F0BDFCFF0000640D00208E
:40578000F8B50D4600216A468C461180002839DB23490978884235DA214B04010C3319680A59002A2ED020460C300B5A801C0E5C184670438018954224D3854222D2002098
:4057C00006E007465F43BF18AF4206D0401CC0B2B042F6D36046002814D0114E271DC8190C366A46294600F006F900280AD168460088012808D030682946C01900F0D1F854
:40580000002803D00120F8BD0020F8BDFDF738FA30680F34015D491C0155FDF72BFAF3E7580D0020F8B50F46002400F031F8002817D10C4900220B460C334A600EE0210120
:405840001D680E466A501D680C36AA53B61C1D680F31AA551D68641C6A54E4B2BC42EED31A71F8BD580D002000280BD0C01C074A81085068890053884118994203D893687F
:40588000516018187047002070470000580D0020F8B5064600200F4D009029700C0121466846FEF799FC00280CD129460C3100980860301B001F84B221466846FEF78CFCC7
:4058C000002801D0FF20F8BD6C800098A8600020F8BD0000580D0020F8B5002827DB19490978884223DA174C05010C342168485900281CD028460C30085A009028460E3045
:405900000E5C401C0E5420682F1DC01900F064F800280CD12068002445590EE0094829460C300068C01900F03CF8002801D00120F8BD00982D18641CE4B2B442EED300200F
:40594000F8BD0000580D002030B50D4604000BD0A800FFF789FF6060002805D000202570C0436080002030BD012030BD70B50D46040005D0002D03D00220205E002801DA4C
:40598000012070BDFDF77CF90221615E60688900405828606088401E6080FDF76BF9002070BD70B50D46040007D0002D05D002212078615E401E814201DB012070BDFDF704
:4059C0005FF96088401C00B26080616880000D50FDF750F9002070BD10B5040009D0227800216068FEF764F90020C0436080002010BD012010BDF0B500231D46002802D0CF
:405A00000224045F0AE00120F0BD46689F00F6598E4201D1012503E05B1CDBB29C42F4DA15700020F0BD000001480078704700006C0D00207CB505460024FEF76DF9A879AF
:405A40006946087000A8062229460130FEF727F90021684604F026FB0C2804D0072804D01F2804D004E0022402E0042400E0272420467CBD10B500F031F9FFF73DFAFFF790
:405A800041FA10BD70B504460025FEF745F9002C06D0A079012803D8214602F06DFB00E00125284670BD01460120002902D05020088000207047000001460120002905D0FE
:405AC000034854220078504308800020704700006E0D002010B502460D49FE204870032410460CF0ADFC002810D10CF051FC00280CD105F06DF8002808D100F0DFFA0028E2
:405B000004D104F053FD002800D10024204610BD6C0D002070B50025044600280ED0A07901280BD8FEF7F8F8A0790028204602D002F0B0FE03E002F085FE00E001252846DA
:405B400070BD0000014610B50120002904D006220248FEF7A4F8002010BD0000700D002001460120002903D00878024908700020704700006E0D002038B504460120002CA4
:405B800020D0617801291DD800290BD0FF25E535FEF7C2F80C4828180088C0B22070072803D00EE0FF25CD35F2E70020694608706846FFF7BBF969460878012801D108200E
:405BC0002070002038BD000000102E40F8B504460120002C26D06178012902D92278092A20D8002905D0FF25E5352078092803D004E0FF25CD35F8E708202070FEF78CF8B3
:405C00002078114F114E08280DD00020FFF7CAF970780128207810D00D4969180880FE2070700020F8BD0120FFF7BCF90720B8810549203188800120F2E7B8810248217883
:405C400020308180EBE70000C0112E406C0D002000102E4070B50E46050001D0002400E00C4C002C11D0E28A500609D5D107C90F022002F0A3FEE08A40218843E08204E012
:405C8000D107C90F012002F099FE3146284602F081FB70BD00150020F8B50546002004460D4E009013E022466946284600F01EFF0098002801D00CF0A5FBA878214602F05D
:405CC000CBF9A878214602F0B9F9641CE4B2308AA042E8D8F8BD0000B815002038B51E4CFFF70AF9042813D0052811D0062812D003282AD007280AD1002069460870024666
:405D00000120FFF723F8FFF7F7F80128FBD138BD00F048FB38BD02F0EDF900F043FB02F04DFA8007800F0228F4D10C4841880029F0D05B21095D0029ECD101210170A07D78
:405D40000140022002F03AFE38BD02F0D7F90120FFF702F938BD0000001500207C0D0020F8B50646002402F097FE0546304602F0ADFE03460A480021068A0DE001228A40D2
:405D80001046174628401F40002803D0002F01D1224394B2491CC9B28E42EFD82046F8BDB81500201CB50020694648706846FFF7E3FE01AA69460A20FEF7C8FF6946042053
:405DC00008561CBD10B50C4601F062FA002809D00179002906D0C1788078224602F060FB002010BD022010BD0148007870470000D81400204030C07E002800D001207047CA
:405E000000B500F001F800BD8C2148430749084A40186030417F491CC9B24177D289914201D300214177C8B270470000E0140020B815002013B501F02BFA04000BD001F032
:405E4000C8FD002807D0214601AA0A310620FEF77DFF00201CBD02201CBD000010B50C4601F016FA00280AD001F0B3FD002806D0224604490A20FEF769FF002010BD022082
:405E800010BD0000C1140020F3B581B0074601460026029802F0F8FD0446002F01D0002500E0154D002D21D0284601F027FA032C04D13946029802F043FE06463846029908
:405EC00002F0BCF8032C06D0002C10D00121384601F01AFB03E03146384603F02DF8284601F0A0FF0221284601F0B6FFFEBD3846029902F0A3F8FEBD0015002010B50446C0
:405F000003F064FC002801D00C2010BD2078611C02F0C8FBFF2801D01F2010BD02F00EFCFF280AD02178621C02F016F8044821780068026B601C904710BD072010BD00006C
:405F4000940D002010B503F041FC002801D00C2010BD02F089FB03480068C06A8047002010BD0000940D002070B50D46044610210CF088F91021601806460CF083F933465B
:405F800010221946204603F04FFC102130460CF079F902202870204604F060FA70BD0000F8B504464078217802028006870FE0781143A67809050002090D0643084601F01C
:405FC00067F900210546F2B2002812D0002C10D0022F0ED0032F0CD0002A0AD00279092A07D0002A05D0134A5A23527E1B5C9A4207D82889002104F066F920460CF002FA17
:40600000FF21002914D10C48224600682946436930469847C0B2FF280AD128464030817EF2B2491C8176FF232146284600F0DDF8F8BD000098140020AC0D00200020704760
:4060400010B5044603F0C2FB002801D00C2010BD2078611C02F026FBFF2808D002F05EFA044821780068426B601C904710BD1F2010BD0000940D002010B504F097FA00F0DD
:4060800057F9002010BD10B5044600786178E2780843A17811430843217908436179084305D003F085FB002803D00C2010BD122010BD204602F0EEFB002010BD10B5FCF7BB
:4060C000FFFD02F00BFD044803F0ECFB02F030FA012000F003F810BDA8140020F1B586B003A8009005A8019025489F22817A114081726846FDF72AFE00283FD169460989AE
:40610000C90705D01F4806990068C2686846904769460989890706D500282FD11A480068816A06988847002828D1184E0025757075737571F575357675767575B570F570D4
:40614000B5713746F5730120BC3738731F20F880FF2130467972A0300175457500F056FA00242046069901F0DFFB002803D1641C2406240EF5D0FD72BD72B57307B0F0BD22
:4061800098140020AC0D0020940D0020E014002070B505460E46084602F07EFC0446304602F094FC0121A9400A46224001400A4301D0012070BD002070BD10B50446084691
:4061C00002F084FC0121A140014201D0012010BD002010BD10B5FEF78FFE032804D101F08DFF0120FEF7B8FE10BDFEB51C4616460F46054601F016FEA878FFF701FE02466B
:406200000190334639460094284600F00DF8002808D1A8780199FFF71DFDFF2C02D138460CF0F0F8FEBD0000FFB585B005460E980C46FF2810D02B49C00009680A58401866
:406240000179C0795278814201D9012601E09006860F6846038108E06078A1788006860FE0780002014368460181284601F0BCFB070007D021462846079A00F0CBFB38463F
:4062800009B0F0BD304600F079FC04AE0346039002AA29460096204600F005FB3C20405D002818D0284601F09FFB012813D0684600890096C0B20190A878231DFF22079909
:4062C00002F01CF868460089039BC2B2A878079902F05CFBD3E7684600890021C0B20091E9E70000A80D0020F8B5104F002500242846FFF735FD060012D00EE03046E04035
:40630000C007C00F07D02146284601F08FFE21462846FFF7B9FD641CE4B2388AA042EDD86D1C2D062D0EE2D0F8BD0000B815002010B502F0FDF80020FFF7D0FE0CF0F8F8D6
:40634000002010BDF8B5002400F094F80123012800D10124104F00203E4620360425082203E0002801D0002100E031460979002907D001290BD002290BD011468140214397
:40638000CCB2401C0006000EEBD07C70F8BD1C43F7E72C43F5E70000E014002010B5FFF7D1FF10BD10B5FCF7ACF80446FEF7A4FD012809D0FEF7A0FD022805D0FCF75CF988
:4063C0002046FCF7A2F8EEE72046FCF79EF810BD10B50B4681791943817103D08078114602F0A2FA10BD10B582798A43827102D1807802F0ADFA10BD30B50C4C0220A28A02
:406400000B4B9978002901D0022906D11D785B78EB18282B01D9032002E0032900D101205105490DC0020143A18230BDC0112E40770D002000B500F023F8002807D00128B1
:4064400005D0032801D0042801D0002000BD012000BD014600B50020C90701D000F00AF800BD014600B50020C90701D000F002F800BD000001480088000A704720102E4093
:406480000448008B410501D5042070474007800F7047000000102E4038B50446000610D5FFF7EEFF01280CD1684601F02DFE6846007800F0B3FA012001F01CFD0220FFF728
:4064C0006DFF0348006801692046884738BD0000940D002010B5034A0178117002F046F9002010BD770D002070B50446FFF7C2FF002801D00C2070BDA27B01211F48002A12
:40650000827801D00A4301E05208520082706279012A14D0C17849084900C170184D2868016820468847207901280CD06188208802F07CFF2080207904280FD015E0C27834
:406540000A43C270EAE72868C168E01D8847E01D02F08CF90B48808C208006E02868C168E01D8847E01D02F081F9074920798870204602F009F9002070BD0000E014002063
:40658000940D002098140020770D002008B50178FFF770FF814201D10C2008BD002914D0072069460870FFF745FF012807D10121684600F08BF8012801D0092008BDFFF7D2
:4065C0001BFF02F015F9012011E0FFF733FF012806D1684601F098FD6846007800F052FA02F0FCF8FFF746FF0028FBD10220FFF7D5FE002008BD000010B5034A0178517080
:4066000002F072F9002010BD770D002038B568460BF08EFE002801D01F2038BD01210098C90201804180002505714571857107214173857302F0A8F8009C20220021204644
:40664000FDF736FB25702A460021601CFDF730FB204602F08BF8204602F046F900980BF0D1FE042200210248FDF722FB002038BD770D00200346084800B5834209D81846B3
:4066800000F006FE002804D00089984201D1012000BD002000BD0000FF0E0000074A9179491C8906890E917138220A4092014907090E11430843024908407047E01400206A
:4066C000FF0E0000C006C00E70470000F8B507460E4600240D4803E0002C01D0002500E005462979002905D0641C2406240EF3D00020F8BD0021204601F016F92E712046AB
:40670000FFF7CCFF28813C700120F8BD0015002010B503F0BDF80222002100F003F801F0B3FE10BD10B5094B40074907000F090F185A595A40185043C0086421FCF71CFCED
:40674000002800D1012080B210BD0000B4500100F7B53D20405C88B015460C46002802D02878042802D200200BB0F0BD6946087200262046FFF73EFB012800D001262046E5
:4067800003A938300191009023460327A17E34333246206A03F0A0F802A8089900900B46019120463A4603A9243003F01DF802466846007A2870204601F0A2F81046D3E748
:4067C000FFB587B00C4605461078694608723D20005D1746002826D000262046FFF70AFB012800D00126204603A93830019100902346A17E34333246206A03F06DF802A8F5
:406800000090291D019120462B1D03A924300A9A02F0EAFF02006846007A388002D1204601F06EF810460BB0F0BDF0B505463C20405C89B016460C4600280CD03078694669
:406840000873002806D000272046FFF7D3FA012803D003E01F2009B0F0BD012703200890204604A93830019100902346E17E34333A46E06903F030F86846007B03A9281823
:406880000290009120462B46019504A92430089A02F0DEFF02466846007B3070204601F039F81046D7E7FFB505463C20405C89B016460C46002810D0084601F095F801284E
:4068C0000BD0308869468883002809D000272046FFF790FA012805D005E000200DB0F0BD0220FBE70127204603A93830019100902346E17E34333A46E06902F0EDFF291DEC
:406900002B1D07A8129A6D4607C5204603A924300C9A02F09DFF02466846808B3080204600F0F8FF1046D9E770B50D460446FFF761FA01280AD0E87AA97A00020143A0788E
:4069400001F09EFC012808D0002070BD00222421204602F0BDFC242070BD28214C200155204600F0A3FB282070BD0000002801D0002000E003484030C07F012800D00020D5
:4069800070470000001500200146002049070ED50021084B03E0002901D0002200E01A461279022A04D0491C0906090EF3D0704701207047001500200146002049070ED567
:4069C0000021084B03E0002901D0002200E01A461279022A04D0491C0906090EF3D07047012070470015002010B5044680346068002803D00BF01AFD0020606010BD403092
:406A0000417070474030817070474030017070470171704792001018C166704770B53C2501F080F9040004D020460021433001F0DBFBFF222946204600F0D4FB002C02D041
:406A4000A07801F0F1F870BD10B5002801D0002000E00348002802D0008903F07BFC10BD0015002010B5002801D0002000E00448002804D00179072901D100F047F810BD81
:406A80000015002010B501F04DF9002802D0807801F0CAF810BD00207047000070B50546008A00281ED01049F122897A1140C90618D5294640314A8A098A521C4A4392B24A
:406AC000D10800D10121540801E0621A94B2A042FBD9FEF7A9FF012804D1298AA878224601F094FC70BD00009814002010B50023054C0B60248A944204D992001018C26ED6
:406B00000A60C36610BD0000B815002038B5044600200090A079002814D14020015D052901D00E290ED168460BF012FC002809D12046009902F0AAFB03481021C28A2046AB
:406B4000FFF746FC38BD00009814002010B50B4604460146184602F027F8002802D020460BF05AFC10BD13B5044601AA11460620FEF7ECF86846818861811CBD002800D10A
:406B80000220704770470000F8B504462346401D543300909A1EA078911E01F0D1FA25464035A88A298A8000FCF7E6F9401E81B2688A884203D96982A07801F039FF204664
:406BC0000021433001F010FB27480088E88102F05FFEE989891C8AB26179FFF7A3FD01F053FC02F055FE2A8A6179FFF79BFD074601F03EFC688A002806D01C49088A03226E
:406C000012021043088202E0002001F005FF1748803801886E8A002E0CD0304648431449FCF79AFA0004000C01D0401C80B21149488002E00F4800214180288A704381B2A1
:406C4000A07801F05FFEFF2228374932B9B21346204602F0EFFBE98AA07801F0D3FDA07801F00CFAF8BD000080102E40E0112E40710200007C0D00207FB504468034616829
:406C800005460E46183108226846FDF708F831462031082202A8FDF702F8102168460BF0F1FA6068102108300BF0ECFA60682B46083024331022694602F0B6FD7FBD10B570
:406CC00004460821FFF78FFB10212046FFF78BFB207905281FD006281DD008281AD12189002003F0AFFA072020712046FFF782F8014620464030012913D00E2101700021C4
:406D00000176204600F0A2FF2046FFF76DFE2046FFF7C4FE10BD20890122002103F076FAE1E70521EAE70000FFB581B01F4604460821FFF758FB10212046FFF754FB2079A9
:406D4000082803D0092804D0042203E00422012501E009220025204600F032FE264600204036307022712046FFF73EFE0398002D02D0012808D00BE001280AD120890022DD
:406D8000029903F043FA04E02189029803F05AFA012700203076012F04D0204600F056FF05B0F0BD02983073204602F0BDFA054605480121C28A2046FFF70AFB002DEFD1FA
:406DC00009202071ECE700009814002070B50C460546FFF70FF8012809D108212846FFF702FB0023012221462846FFF79DFF70BD10B5044600F0E4FD2046FFF7F5FD0021C5
:406E00004034217010BD70B505461A24FEF7F2FF012809D108212846FFF7E5FA0023012221462846FFF780FF70BD0000F8B50446002000900E4668460BF08AFA002801D09F
:406E40000D20F8BD8420005908212030009D00F01AFA20460421383000F015FA002E02D1204600F0E9FD2946204602F09EF90E480821C28A2046FFF7ABFA204600F057FF14
:406E800025464035002808D0204600F023F8002801D0092028700020F8BD08202870204600F0C0FFF7E7000098140020014610B540310A460978082906D0092907D00A29E2
:406EC00001D100F091F810BD0B20107010BD00F001F810BD70B50446007925464035052805D0062803D008280FD00C2070BD03220621204602F0ECF90D480821C28A204660
:406F0000FFF766FA1120287010E006202873204602F00AFA0646AA8A0A20424301212046FFF756FA002E01D109202071002070BD9814002038B504460020009068460BF0C5
:406F400007FA002801D00D2038BD2046009D00F0B1F908202071204600F06EFD2946204602F056F900213D2001550F2040210855204600F057FF002038BD00B5024600F059
:406F80001FFD10214032117000BD10B50446FEF731FF012809D04020005D112805D100231A4606212046FFF7BFFE10BD10B5FFF786FE10BD38B504460021684600910BF0A4
:406FC000C7F900280CD12046009902F0A2F905480821C28A2046FFF7FBF90D204034207038BD00009814002038B504460021684600910BF0ADF9002801D00D2038BD204683
:40700000009902F07BF905480821C28A2046FFF7DFF90C2040342070002038BD9814002000787047F8B50025002801D0002400E01A4C002C28D0204600F0CBFC002823D08A
:40704000207903281CD005281CD026464036B18AA07801F061FCB078012815D10021204601F0BFFD274680373868002802D00BF0DDF93D600020B0702079072805D007E069
:40708000042000E006202071F8BD2046FFF706FD0221204600F0E0FEF8BD00000015002010B54C22115400F04CF810BD10B50446FF21FFF798F909202071A07801F052FC60
:4070C00010BD000038B5FF216A461180002801D0002400E0084C002C0DD011460620FDF735FE684601882046FFF73DFD03480068C1692046884738BD00150020AC0D002095
:4071000010B504468079002809D022214C200155FF212046FFF767F9204600F012F810BD10B5037902464032002B03D01173092B02D003E0002100E02221117300F001F821
:4071400010BDFEB504460089002700902781207926464036002817D0012815D002280AD112E002AA01A9204601F00CFD002807D101980BF051F9204601F02CFD0028F0D0D2
:407180002046FEF789FDB776254680352868002802D00BF04BF92F606868002802D00BF045F96F60317B002919D0009800F064F8A078002100F076FF2046FFF7A9FAA07820
:4071C00001F048F8A07800F02FFDFF212046FFF70AF90B20FFF7E2F800F068FCFEBD1F213173E2E7F8B517460E46054602F04CFB04003CD020460C3000F0E6FF20460622FD
:4072000000211830FCF754FD2046062200211230FCF74EFD1648224600683946436A28469847074626702846FEF7E4FD012148406070002D10D02889608028464030C17875
